:020000040001F9
:10F00000784A002015F201001DF201001FF20100F4
:10F0100021F2010023F2010025F2010000000000AE
:10F0200000000000000000000000000027F20100C6
:10F0300029F20100000000002BF201002DF2010076
:10F04000B1F601002FF20100C1FA0100D1F7010071
:10F050002FF201002FF20100DDF301002FF2010079
:10F060002FF201002FF201002FF201002FF2010018
:10F070002FF201002FF201002FF201002FF2010008
:10F080002FF2010001F701002FF201002FF2010021
:10F09000DFF701002FF20100E9F701002FF2010074
:10F0A0002FF201002FF201002FF201002FF20100D8
:10F0B0002FF201002FF2010000000000000000000C
:10F0C0002FF201002FF201002FF201002FF20100B8
:10F0D0002FF201002FF201002FF2010000000000CA
:10F0E0000000000000000000000000000000000020
:10F0F0000000000000000000000000000000000010
:10F1000000000000000000000000000000000000FF
:10F1100000000000000000000000000000000000EF
:10F1200000000000000000000000000000000000DF
:10F1300000000000000000000000000000000000CF
:10F1400000000000000000000000000000000000BF
:10F1500000000000000000000000000000000000AF
:10F16000000000000000000000000000000000009F
:10F17000000000000000000000000000000000008F
:10F18000000000000000000000000000000000007F
:10F19000000000000000000000000000000000006F
:10F1A000000000000000000000000000000000005F
:10F1B000000000000000000000000000000000004F
:10F1C000000000000000000000000000000000003F
:10F1D000000000000000000000000000000000002F
:10F1E000000000000000000000000000000000001F
:10F1F000000000000000000000000000000000000F
:10F20000DFF80CD000F08EF800480047E953020008
:10F21000784A00200648804706480047FEE7FEE798
:10F22000FEE7FEE7FEE7FEE7FEE7FEE7FEE7FEE7B6
:10F2300029F8010001F201000048704728C60200C9
:10F2400040EA01039B0703D009E008C9121F08C068
:10F25000042AFAD203E011F8013B00F8013B521EE8
:10F26000F9D27047D2B201E000F8012B491EFBD25F
:10F2700070470022F6E710B513460A4604461946C1
:10F28000FFF7F0FF204610BD421C10F8011B0029BB
:10F29000FBD1801A704730B504460020034600E0D9
:10F2A0005B1C934203D2E05CCD5C401BF8D030BDC8
:10F2B000034611F8012B00F8012B002AF9D118465A
:10F2C00070472DE9F05F0546002092469B46884630
:10F2D0000646814640241BE02846414647462246D2
:10F2E00000F041F853465A46C01A914110D31146D6
:10F2F0001846224600F028F82D1A67EB01084F4601
:10F3000022460120002100F01FF817EB00094E41B2
:10F31000201EA4F10104DFDC484631462A4643465C
:10F32000BDE8F09F064C074D06E0E06840F00103A1
:10F3300094E8070098471034AC42F6D3FFF764FF17
:10F3400040C8020060C80200202A04DB203A00FA0C
:10F3500002F1002070479140C2F1200320FA03F32C
:10F36000194390407047202A04DB203A21FA02F02A
:10F370000021704721FA02F3D040C2F120029140EF
:10F3800008431946704770B58C1810F8015B15F0EA
:10F39000070301D110F8013B2A1106D110F8012B07
:10F3A00003E010F8016B01F8016B5B1EF9D12B072C
:10F3B00005D40023521E0DD401F8013BFAE710F8E2
:10F3C000013BCB1A921C03E013F8015B01F8015BCF
:10F3D000521EF9D5A142D8D3002070BD2DE9F04FBF
:10F3E00089B04FF00008002008904FF4807007901B
:10F3F0000126002413E0079807F084F948B100BF04
:10F4000081480068304020B1079807F06DF948EA5C
:10F41000060876000798001D80B20790641C082C2F
:10F42000E9D34FF4BE7007F06DF950B14FF4BE70E0
:10F4300007F05AF948F0004808AA0121002007F017
:10F4400039F908F0FF0000B3012600241BE006EAAA
:10F450000800B0B100BF6D4850F82400C0F304208C
:10F46000074600BF694850F82400C0F301408146B8
:10F47000204603F02FF8054615B149463846A847FF
:10F4800000BF7600641C082CE1D308F0004000287F
:10F490007ED0002006900590002505E04FF0FF305B
:10F4A00004A941F825006D1C002DF7D000BF0020F5
:10F4B000069000246FE05648005D0390039820F00A
:10F4C000C00753480057401C002863D004A93846A1
:10F4D00006F0CEFA00285DD003984FEA901A38461D
:10F4E00003F040F8814602F0F5FF0290029810B94F
:10F4F000BAF1030F4BD1BAF1030F11D1394605A868
:10F500000246CB0801F0070112F803C04FF0010ECC
:10F510000EFA01FE4CEA0E0C02F803C000BF00BF59
:10F5200000BF00BF4FF0A041084600F5E06151F870
:10F530002710C1F3014900BF08A9384606F098FA20
:10F540008346BBF1000F02D0B9F1020F05D0BBF129
:10F55000000F1BD1B9F1030F18D1BAF1030F0FD16E
:10F56000B9F1020F01D1032000E0022001903846DA
:10F57000019907F040F80698401CC0B2069000BF01
:10F58000029818B151463846029A904700BF00E0F1
:10F5900036E000BF641C042C8DD3069858B30127B5
:10F5A00003AA0121002007F085F800250AE003A83E
:10F5B00050F8250008A951F82510884201D00027ED
:10F5C00002E06D1C002DF2D000BF17B100200690A4
:10F5D00010E000250CE003A850F8250008A941F828
:10F5E000250005A850F8250004A941F825006D1C48
:10F5F000002DF0D000BF069800287FF458AF00BF60
:10F6000009B0BDE8F08F00000463004010650040C1
:10F61000F031002000F01F0201219140024A43090D
:10F6200042F823107047000080E200E000F01F0263
:10F6300001219140024A430942F82310704700001B
:10F6400080E100E000F01F02012191404209920098
:10F6500002F1E022C2F80011704700F01F02012100
:10F6600091404209920002F1E022C2F80011704775
:10F6700000F01F0201219140024A430942F8231081
:10F680007047000000E200E010B5002807DA4A07E2
:10F69000140E054A00F00F031B1FD45403E04A0761
:10F6A000130E024A135410BD18ED00E000E400E010
:10F6B00010B54FF4807006F0E6F960B14FF4807039
:10F6C00006F0EAF9012006F0F1F901200B49487033
:10F6D000002003F07BF84FF4827006F0D4F958B1A3
:10F6E0004FF4827006F0D8F9022006F0DFF901200D
:10F6F0000249887003F06AF810BD00008C310020C8
:10F7000010B500200949086000210948C0F84411DB
:10F71000C0F84811C0F84C1100200549C1F800019B
:10F7200002493C3908600BF009FF10BD401101404F
:10F730000010014010B500BF0348007808B900F080
:10F74000D1F900BF10BD0000FC3900202DE9F047C1
:10F75000074688461646C24607EB47011B4800EBA2
:10F76000C109D9F8140020B1012811D0022826D1EE
:10F770001EE0484600F0EEF90546B54201D20024ED
:10F7800005E0344632465146484600F02AFA18E071
:10F79000484600F0DFF90546B54201D2284600E0B0
:10F7A0003046044622465146484600F01AFA08E020
:10F7B00032465146484600F0DBF9044601E0002499
:10F7C00000BF00BF2046BDE8F0870000143A0020CB
:10F7D00010B50024204606F0C1FC00BF10BD10B5D6
:10F7E0000BF0C2FD10BD000070B50A48006868B19A
:10F7F000084800688047044600BF254625B100BF81
:10F80000284600F07BFF00BF00BF01E005F06AF969
:10F8100070BD00003823002001480249086070478D
:10F820000090D0035023002010B505F0AFFF28B1A1
:10F8300092480088C0F304209149086005F0FEFF5B
:10F8400010B190489049486706F034F830B18B48C1
:10F85000E0380068C0F342308C49086006F056F882
:10F8600028B18B48006820F080708949086006F054
:10F870006BF848B10020874908604FF08041C1F81B
:10F8800010018249091F086006F08AF818B10320A8
:10F890007E496431086006F0A1F868B105207E4910
:10F8A000086001207C497831086000207A490831DD
:10F8B00008603F20091F086006F0AEF8002855D008
:10F8C0006E48E0300068754908606C48E4300068B4
:10F8D000091D08606948E8300068091D086067482C
:10F8E000EC300068091D08606448F0300068091DAC
:10F8F00008606248F4300068091D08605F48F8300D
:10F9000000686649203108605C48FC300068091DC9
:10F91000086063480068091D08606148001D0068B0
:10F92000091D08605E4808300068091D08605C48D1
:10F930000C300068091D08605948103000685749AC
:10F9400040310860564814300068091D086054486A
:10F9500018300068091D086051481C300068091DF6
:10F9600008604F4820300068091D086005F0E2FE7D
:10F9700030B14248CC38006800F04F004949086077
:10F9800005F030FF40B14848006800F0010018B1B0
:10F990006FF001004449086005F06EFF28B143484C
:10F9A000006840F480604149086039487438006854
:10F9B00040F4700036497439086000BF00BF00BFD2
:10F9C000BFF34F8F00BF00BF00BF00BF00BF00BF2D
:10F9D000BFF36F8F00BF00BF00BF3548006800F065
:10F9E000004028B93248001D006800F00040E8B32C
:10F9F00001203049086000BF2F4800680028FBD074
:10FA000015202B49086000BF2B4800680028FBD058
:10FA100015212748001D016000BF27480068002805
:10FA2000FBD000202349086000BF2348006800285D
:10FA3000FBD000BF00BF00BF00BF00BFBFF34F8FB0
:10FA400000BF00BF00BF1248F038006800F4E0605B
:10FA50001A490843001D0E49F039086000BF00BF75
:10FA600000BFBFF34F8F00BF00BF00E003E000BF47
:10FA700000BF00BFFDE7FFF7CFFE10BD240300105D
:10FA8000403501400DF0ADBA00C007403C050040D4
:10FA9000FCED00E00C0100401056004020C5004085
:10FAA00024040010E40E0040000400403C17004015
:10FAB0000012001004E5014000E401400000FA05D6
:10FAC00010B50648007F20B1044905480CF0F6F84F
:10FAD00003E0024902480CF050F810BDF831002054
:10FAE0000020004010B5124C02202061606111A07E
:10FAF000A0611349E1614FF4007121620021A1620C
:10FB00006162E1620BA0A0640E49E16410212165ED
:10FB10000021A1656165E1650BA1E01DFFF7C8FB50
:10FB20000AA12046FFF7C4FB2020A07110BD0000F1
:10FB3000FC3900205465726D696E616C0000000034
:10FB4000EC370020EC39002052545400534547470D
:10FB50004552000010B501460A69CB689A4204D8A4
:10FB60008C68641EE41AA01801E0D41A601E10BD4F
:10FB70002DE9F0470446894617464FF0000AE5682C
:10FB800000BFD4F81080A84503D9A8EB0500461E95
:10FB900004E0A5EB0800401CA1680E1AA068401BF9
:10FBA000B04201D9304601E0A068401B0646BE4283
:10FBB00001D2304600E038460646616848193246B0
:10FBC0004946FFF73DFBB244B144BF1B3544A06832
:10FBD000A84200D10025E560002FD2D15046BDE8F3
:10FBE000F0872DE9F047044689461546E668A06887
:10FBF000871BAF4208D9616888192A464946FFF732
:10FC00001FFB7019E06010E0B84661688819424631
:10FC10004946FFF715FBA5EB070809EB070142462C
:10FC20006068FFF70DFBC4F80C80BDE8F0870000AA
:10FC30000FB41CB50246002007AC00290BD0491EAA
:10FC4000CDE90021054B6A462146069800F04EF8A2
:10FC5000009A002111701CBC5DF814FB4F010200DA
:10FC60000FB4084B10B504A902AA039800F03EF89F
:10FC7000044602A9002000F075FA204610BC5DF889
:10FC800014FB00006501020002E008C8121F08C151
:10FC9000002AFAD170477047002001E001C1121F0D
:10FCA000002AFBD1704700000146202908DA012014
:10FCB00088400A4A104008B1012070470020FCE744
:10FCC000402909DAA1F12000012202FA00F008B16E
:10FCD0000120F2E70020F0E70120EEE7FC06FFBC80
:10FCE00000BFEFF31081084672B670472DE9FF4F51
:10FCF0008DB00F460546002606E025280BD0DDE92D
:10FD00000F1290476D1C761C28780028F5D111B091
:10FD10003046BDE8F08F0024A246A1460122EC49FE
:10FD200000E0044315F8013F203B02FA03F00842CB
:10FD3000F7D128782A2810D06FF02F022878A0F168
:10FD40003001092914D80AEB8A0102EB410144F081
:10FD5000020400EB010A6D1CF0E701CF5FEA000A24
:10FD600003D544F40054CAF1000A44F002046D1CA7
:10FD700028782E2817D115F8010F44F004042A28FA
:10FD80000ED06FF02F022878A0F1300109290AD88F
:10FD900009EB890102EB410100EB01096D1CF2E75F
:10FDA00057F8049B6D1C28786C280FD006DC4C2873
:10FDB00017D068280DD06A2814D104E0742810D018
:10FDC0007A280FD10DE044F400140AE044F48014C2
:10FDD00001E044F440146978814202D104F58014B2
:10FDE0006D1C6D1C2A786E2A1FD00CDC632A31D062
:10FDF00004DC002A8BD0582A11D1A3E0642A68D0F1
:10FE0000692A0CD165E0732A2ED004DC6F2A73D0E6
:10FE1000702A04D19BE0752A6FD0782A6ED01046E4
:10FE2000DDE90F129047761C50E1C4F3025002281E
:10FE300006D0032809D0042801CF09D0066045E187
:10FE400001CFF117C0E9006140E101CF06803DE13B
:10FE500006703BE117F8040B8DF8000000208DF8C8
:10FE60000100EB46012003E057F804BB4FF0FF30E0
:10FE700061074FF0000102D40DE008F1010188464E
:10FE800049450FDA8045F8DB1BF808100029F4D14A
:10FE900008E008F1010188468142FADB1BF80810EE
:10FEA0000029F6D1DDE90F23AAEB0800814621469F
:10FEB00000F036F9304400EB080604E0DDE90F12EB
:10FEC0001BF8010B9047B8F10108F7D221464846CC
:10FED000F7E00A21C4F302534FF0000B0891022B04
:10FEE00004D001CFC117032B09D00AE0FF1D27F072
:10FEF0000707F7E8020108E032E01FE020E000B267
:10FF0000C117042B01D140B2C117031E71F10003C8
:10FF100007DA4FF0000CD0EB0C006CEB01012D2345
:10FF200002E0230504D52B238DF82430012303E0C0
:10FF3000E30701D02023F7E7984658E00A2110E0B4
:10FF400010210EE010204FF0000B08900CE0102163
:10FF50004FF0000B44F004044FF00809089103E04F
:10FF600008214FF0000B0891C4F30253022B04D078
:10FF700001CF0021032B06D006E0FF1D27F0070765
:10FF8000F7E8020103E080B2042B00D1C0B24FF0C9
:10FF9000000823072BD5702A07D0DDF820C08CF08D
:10FFA000100C5CEA0B0C05D00EE040238DF82430D9
:10FFB000012308E050EA010306D030238DF82430F5
:10FFC0008DF8252002239846DDF820C08CF0080C1F
:10FFD0005CEA0B0C0BD150EA010301D1630706D593
:10FFE00030238DF824304FF00108A9F10109582A77
:10FFF00004D038A20B9208AA0A920BE03AA2F9E7C1
:020000040002F8
:100000005B46089AFFF75DF90B9B9B5C0A9A521EB0
:100010000A92137050EA0102F2D10A98ADEB000087
:1000200000F1200B600702D524F4803401E04FF08A
:100030000109D94502DDA9EB0B0000E0002000EB2F
:100040000B0141440890AAEB010AE00306D4DDE964
:100050000F232146504600F063F806444FF0000994
:1000600008E009A911F80900DDE90F12904709F12C
:100070000109761CC145F4DBE0030CD5DDE90F2353
:100080002146504600F04CF8064404E0DDE90F122A
:1000900030209047761C0899481E08900029F5DC0E
:1000A00008E00A980A990078491C0A91DDE90F12C4
:1000B0009047761CBBF10001ABF1010BF1DC21464E
:1000C0005046DDE90F2300F019F806446D1C1BE6CD
:1000D000092801003031323334353637383961621E
:1000E00063646566000000003031323334353637E2
:1000F0003839414243444546000000002DE9F041B3
:10010000044600251E461746880404D405E03946F7
:100110002020B0476D1C641EF9D52846BDE8F0814B
:100120002DE9F041044600251E469046C80301D53E
:10013000302700E02027880404D505E041463846F2
:10014000B0476D1C641EF9D52846BDE8F0814A68A9
:10015000002A06D00A68531C0B6010704868401EC5
:10016000486070470A68531C0B601070704770B588
:1001700005460C4605B10CB9002070BD2878400832
:100180002178B0EB510F01D00020F6E70622611C68
:10019000681CFFF780F808B90120EEE70020ECE7C3
:1001A0000246002104E0505C08B101207047491C60
:1001B0000629F8D30020F9E710B504466CB10848C9
:1001C0000068A04209D806484068A04205D32046EE
:1001D00004F099FD08B1012010BD0020FCE70000EB
:1001E000542300202DE9FC4104468846164600258C
:1001F00037880020308094F82D0058B13A463146B7
:10020000404601F039FA054600BF15B12846BDE861
:10021000FC8100BFA07850B13A463146404600F01C
:1002200035FC054600BF0DB12846F0E700BFE07879
:1002300060B1E17848B23B463246414603F0F0FAFD
:10024000054600BF0DB12846E1E700BF606868B110
:10025000616891F900003B46324641460BF072FC62
:10026000054600BF0DB12846D1E700BF2089002810
:100270000EDD43460622022104F10800CDE90067A5
:100280000BF05EFE054600BF0DB12846BFE700BF7C
:10029000208A00280EDD43460722032104F11000C6
:1002A000CDE900670BF04CFE054600BF0DB12846B6
:1002B000ADE700BF208B00280EDD43461522142138
:1002C00004F11800CDE900670BF03AFE054600BFC7
:1002D0000DB128469BE700BF206A58B13B46324625
:1002E0004146206A02F013FB054600BF0DB12846C7
:1002F0008DE700BF606A58B13B4632464146606AAE
:1003000005F01EF9054600BF0DB128467FE700BF86
:1003100094F82C0000280BDD3B463246414620462F
:100320000AF008FB054600BF0DB128466FE700BF85
:10033000207858B13B4632464146204605F03BF90D
:10034000054600BF0DB1284661E700BF28465EE7BD
:1003500070B504461448FFF723FF0546012C06D06C
:10036000022C0BD0032C10D0042C1AD113E00F4810
:10037000407810B10DB1012070BD00BF0B488078EE
:1003800010B10DB10220F7E700BF0848C07808B1EE
:100390000320F1E700BF0548007908B10420EBE72E
:1003A00000BF0020E8E70000212200209C29002057
:1003B0000146481C052290FBF2F302FB1300C0B279
:1003C00070470146C87800F0040008B9072070475C
:1003D0000020FCE710B501220221002001F0A4FD5D
:1003E000044600BF1CB1072C01D0204610BD00BF41
:1003F00007220221012001F097FD044600BF1CB135
:10040000072C01D02046F1E700BF0A220021084650
:1004100001F08AFD044600BF1CB1072C01D0204624
:10042000E4E700BF0020E1E730B599B03C210AA81D
:10043000FEF71FFF02208DF8280001208DF82A000A
:1004400005208DF82B000120ADF8400015491191D1
:10045000202102A8FEF70DFF01208DF808008DF87D
:100460000B00282006901E20079001208DF80C001C
:100470004FF448600890B420099000200A4B02AA6B
:10048000014600900AA800F017FC044600BF25466C
:1004900025B100BF284600F031F900BF00BF19B0F8
:1004A00030BD00009C210020456F020070B54FF662
:1004B000FF7210211C48FEF7D5FE08201B4908607A
:1004C000194808F0BBFA19480168174809F062FAA0
:1004D000044600BF254625B100BF284600F00EF9AE
:1004E00000BF00BF114801680F4808F0EBFC04464C
:1004F000062C08D000BF254625B100BF284600F0D5
:10050000FDF800BF00BF002009490870032000F07B
:10051000F9FC044600BF254625B100BF284600F07F
:10052000EDF800BF00BF70BD30270020F42100208F
:10053000F821002070B58CB004460D461646002008
:1005400005E0C0F10F01615C0DF80010401C10289F
:10055000F7D30D2104A8FEF78CFE002005E02A5CED
:10056000C0F10F0304A9CA54401C0328F7D36846FE
:1005700043DF002005E0C0F10F0208A9895C315477
:10058000401C0328F7D30CB070BD10B50446022000
:1005900001F090FA10BD000010B5002407E00749F3
:1005A000096811F83400012105F074FB641C04484B
:1005B00000788442F3D3002010BD0000CC2200203C
:1005C000D02200202DE9F84306460C461746052F99
:1005D00002D20720BDE8F88305F05AFC38B905F0CF
:1005E00027FC054600BF0DB12846F3E700BF1648BB
:1005F0000660164804701648076000201549086018
:100600001549086015E006EBC4081448006800901E
:1006100098F802008DF8010098F80000104A694629
:1006200005F08EFB054600BF0DB12846D2E700BF9E
:1006300000BF201EA4F10101CCB2E4D1094A00217F
:10064000094800F02DF9C5E7CC220020D022002077
:10065000D4220020D8220020DC22002068C502001D
:1006600049410200A92E020064C502001BA101201D
:1006700006F0E0FA00BF06F0E7F900BF00BF06F0A1
:10068000E9F90028FBD100BF00BF1A48006800F05C
:10069000010000B100BE00BF00BF00BF00BF00BF2F
:1006A00000BF00BFBFF34F8F00BF00BF00BF1148A6
:1006B000E438006800F4E0600F490843001D0D496C
:1006C000E439086000BF00BF00BFBFF34F8F00BF19
:1006D00000BF00BF00BF00BFFDE700004150505FFA
:1006E0004552524F523A4552524F523A4661746106
:1006F0006C0D0A00F0ED00E00000FA053EB504467E
:10070000002000900190029002946A46002144F279
:100710000100FFF7ABFF3EBD2DE9F84307460C464D
:10072000904626480088844244DC4FF6FF7500203E
:100730000090684600F080F900BF214890F80090D2
:100740002048007804F0EAFF484501D1012000E08C
:10075000002030B91B480578007804F0DFFF194904
:1007600008709DF8000000F06DF94FF6FF708542AB
:100770001ED01548006840F835808FB1002C0FDD81
:10078000124909680D4A128805FB021022463946B3
:10079000FEF756FD0C48006800EBC500848005E0BC
:1007A00000200949096801EBC5018880002600E0A6
:1007B000042600E009263046BDE8F883EA2200203E
:1007C000E8220020E9220020E0220020E42200208C
:1007D0002DE9F0411AE016480478164800681649D9
:1007E000098804FB01051548006800EBC4008688F1
:1007F0001248006850F8347031462846B8470C4813
:10080000007804F08BFF0A49087000BF00BF002089
:1008100058B900BF0649087809490978814201D1D1
:10082000012100E000210029D5D0BDE8F0810000C1
:10083000E8220020E4220020EA220020E02200201A
:10084000E922002030B50346481C4FF6FF7505EA43
:10085000C004104600F003050DB9012500E0002595
:100860000DB9072030BD084802601019074D2860F7
:100870000020074D2870074D28700748038007485F
:1008800001800020EEE70000E0220020E4220020AA
:10089000E9220020E8220020EA220020EC220020A9
:1008A00010B503460C4600BF0B48406808B9082045
:1008B00010BD00BF0AB90720FAE70BB90720F7E718
:1008C0001868007C08B10820F2E719680020087455
:1008D0004C744A6100BFEBE7F02200202DE9F041A3
:1008E00004460D46264600BF082D01D1012000E038
:1008F0000020074627B900BF0020FFF7FFFE00BF1A
:1009000000BFD6E900108847BDE8F0817CB50446F9
:100910000D4600940195034A08216846FFF7FCFE46
:100920007CBD0000DD0802002DE9F04107460D46C0
:1009300014461E46204600F0030109B9012100E0DB
:10094000002111B90720BDE8F0810CB90720FAE7B2
:1009500009F0CEFB1148066000201149087048706C
:1009600008468570446000200E4908600E490870F2
:100970000E4908701420FEF74DFE07211420FEF7E3
:1009800083FE1420FEF75EFE384609F087FB09F06F
:100990007FFB074908600020D5E700000C230020FA
:1009A000F0220020F8220020082300200923002044
:1009B000FC2200202DE9F04104460E46174625464C
:1009C00000BF1048406810B90820BDE8F08100BFA2
:1009D0000CB90820F9E7052E01D20720F5E7686970
:1009E00008B90820F1E7687C012801D1304600E011
:1009F000002080463B464246314628460AF04EFDDE
:100A0000E3E70000F022002070B50446254600BF51
:100A10000848406808B9082070BD00BF0CB168697B
:100A200008B90820F8E700202874022128460AF0B7
:100A300064FDF1E7F022002010B50446204609F0DD
:100A40000DFC10BD70B5044625460E488068B0B157
:100A5000ADB9FFF745F906460A4800680A4908603B
:100A6000084840684FF0E021C1F804010020054922
:100A700088601EB900BF62B600BF00BF00BF00BFE4
:100A800070BD00004432002000E100E0F8B50546EA
:100A90000C4617462088001DB84201D90C20F8BD2D
:100AA000684679DF064600BF0EB13046F7E700BF63
:100AB0000320218868542088401C20801920218828
:100AC00068542088401C208020884119BDF800000F
:100AD0000BF080F92188084420800020DFE7000027
:100AE00030B58BB01348007800F0EEFB0546284681
:100AF00009F0E8FBD8B101A800F028FB142201A9F5
:100B000006A8FEF79DFB00240DE007A931F81400AC
:100B10000849097800F0E6FB20B107A931F8140074
:100B200004F09CFB641C0698A042EED800BF0BB0FA
:100B300030BD00006A22002010B50446637903F03E
:100B400003022179208804F059FA10BD10B504463B
:100B5000207918B9204600F007F803E02046FFF797
:100B6000EBFF00BF00BF10BD2DE9F04188B0044687
:100B70000025208800F05CFB0746208803F06EFE0D
:100B80000646A0680790607A0690208800222349D4
:100B9000097800F0B9FB17B908B0BDE8F0816079B9
:100BA000C0F3800090B10721304607F0D5FB054621
:100BB000BDB108208DF800002088ADF80200ADF826
:100BC00004600295684602F053FB0AE0208814494D
:100BD000097800F087FB20B1304603F029FE8046FB
:100BE00000BF03208DF80C002088ADF80E0060795E
:100BF000C0F380008DF81000A079C0F380018DF85B
:100C000011109DF81C108DF812109DF818108DF819
:100C1000131003A802F02CFB00BFBDE7AA2200209E
:100C2000AC2200202DE9F04192B080460D461F20F5
:100C300011901090B8F1000F17D04046FFF7C1FB9C
:100C4000044600BF1CB1204612B0BDE8F08100BFD1
:100C500011AA08A94046FFF7C5FA044600BF0CB127
:100C60002046F1E700BF08AE02E000260020119008
:100C7000ADB128460AF028FB044600BF0CB120465F
:100C8000E2E700BF10AA69462846FFF7ABFA044620
:100C900000BF0CB12046D7E700BF6F4602E0002737
:100CA00000201090BDF84000C3B2BDF84400C1B2AE
:100CB0003A46304672DFC7E72DE9F04704460F4653
:100CC00015461E46DDF8208004B115B90E20BDE89A
:100CD000F087012048490870002048490870202208
:100CE00029464748FEF7ACFA464806604648C0F831
:100CF00000804FF6FF70454908804548002101609B
:100D0000818081713C214348FEF7B3FA2078414944
:100D10000870A0788870E078C87060784870D4E96E
:100D20000402C1E904020846D4E90212C0E9021231
:100D3000D4E90612C0E90612606AD8B136483549CE
:100D4000486236498160606A00883249496A088091
:100D5000606A80882F49496A8880002005E0616ABE
:100D60008968095C2D4A1154401C2A49496A8988BE
:100D70008142F4D8A06A20B329492A4881602549D4
:100D8000886227492348806A8160A06A8088214957
:100D9000896A8880A06A00881E49896A08800020C4
:100DA00005E0A16A8968095C1D4A1154401C194973
:100DB000896A89888142F4D894F82C00154981F811
:100DC0002C00206A58B1184812490862206A4088ED
:100DD000096A4880206A00880E49096A08806068AC
:100DE00010B10C496068486039460A48FFF71AFF9D
:100DF000814648466BE700001C2200201F2200208D
:100E00009C29002030220020342200202C220020A7
:100E100020220020BC290020F8290020042A0020DC
:100E2000302A0020242A00202822002010B5044661
:100E30002088102804D0112806D01B280CD107E0E8
:100E4000204606F01DFB08E0204606F0CBFC04E03F
:100E5000204606F00FFE00E000BF00BF10BD0000FE
:100E600070B50546022D02D0032D15D100E000BF5C
:100E70000B48007878B100200949087009480078CB
:100E800000F040F8044634B10748006818B1204625
:100E900005490968884700E000BF00BF70BD000039
:100EA0001D2200201F2200203422002010B574DFF4
:100EB00001200F49087000200E49087006200E49D5
:100EC000C87000210C48FFF7ADFE04460CB1204667
:100ED00010BD0A48007800F015F8044634B10848FF
:100EE000006818B120460649096888470020EFE7E6
:100EF000382200203A220020BC2900201F22002096
:100F0000342200207FB505464D48007810B90820EE
:100F100004B070BD4B48057002F0ECFC20B101201C
:100F2000494908700020F3E74848002101608180AA
:100F300081714748407818B14248007801280DD0A7
:100F40004348807818B13F480078012806D04048CF
:100F5000807888B13B48007802280DD13D48006870
:100F600038B101203C49087008203A49096888478F
:100F700002E00020384908702846FFF7E9F93149B6
:100F8000087034480068C0B108460078032803D0D0
:100F900008460078042810D12D48007868B12F4801
:100FA000007850B900202E49087001202D490870A2
:100FB000072028490968884702E00020294908706D
:100FC000002000900190029003908DF800008DF8B1
:100FD00008001C48007805281CD2DFE800F0170341
:100FE000080D1200684609F085FD044613E06846C6
:100FF00009F090FD04460EE0684609F0A1FD0446A4
:1010000009E0684609F0CCFD044604E000201649DA
:10101000087000E000BF00BF0A48007828B16846A9
:1010200073DF04460CB1204672E70A48006820B11D
:101030000D480078074909688847002068E70000E4
:101040001C2200201F2200201D2200202022002020
:101050009C29002030220020272200203822002056
:101060003A220020392200201E22002030B50446FA
:101070000848007808B9082030BD0020054D2870C8
:1010800001B90BB1012000E00020034D28700020C1
:10109000F2E70000392200203A22002070B5054610
:1010A0001C2229461248FEF7CBF80020114908708F
:1010B000286850B1104829680A6802604968416090
:1010C0007ADF04463CB1204670BD0B487BDF044606
:1010D0000CB12046F8E74FF6FF7008490880002061
:1010E00007490870074A00210748FFF7D9FBEBE7DB
:1010F000502A0020502200203C22002046220020BE
:101100004422002039BE020040C4020010B504464B
:101110002088102806D0112808D012280ED0502878
:1011200010D107E0204606F08FF90CE0204606F0CB
:101130001BFB08E0204606F0B9FC04E0204606F060
:1011400077F900E000BF00BF10BD000010B50446F5
:101150000348027D011D204609F02DF910BD000055
:101160008C2A002010B504460348C17D2246001D8C
:1011700009F00AF910BD00008C2A002010B50446C1
:101180000348017E2246001D09F0FEF810BD000054
:101190008C2A002070B504462088102804D011281D
:1011A0001DD01A2840D11EE008F0CAFEA08808F021
:1011B0003FFD20B900BF0420FFF7A0FA0EE0E07B5E
:1011C000022801D1012000E000200546A2882B461C
:1011D0001649A1F1120009F00FF900BF24E0A08820
:1011E00008F0D0FE20E0207A0121B1EB101F01DAD7
:1011F000012000E000200346A2880C49491CA1F10F
:10120000130009F0F9F8207A0221B1EB101F01DA7E
:10121000012000E000200346A2880449891CA1F1B6
:10122000140009F0E9F800BF00BF70BDA22A002039
:1012300070B5044600250B48017D2246001D09F0CB
:10124000A3F860B10748817D2246001D09F09CF893
:1012500006460EB1022000E00120054600BF2846E8
:1012600070BD00008C2A00202DE9F04104460025C5
:101270000B48017D2246001D09F086F8064666B13E
:101280000748417D2246001D09F07EF807460FB150
:10129000022000E00120054600BF2846BDE8F0819D
:1012A0008C2A002010B500240AE020460AF016FE21
:1012B00020B920460AF008FE204610BD601CC4B2CA
:1012C000182CF2DB1820F8E710B5044620460AF087
:1012D00005FE10B10248005D10BD0020FCE70000D3
:1012E000A52A002070B505460C4620460AF0F6FDFA
:1012F00030B10448015D2A46153809F045F870BD43
:101300000020FCE7A52A002070B505460C461646CD
:1013100020460AF0E3FD30B10348011933462A465E
:10132000153809F069F870BDA52A002010B50446EB
:10133000204600F049F808B9052010BD2189A08990
:1013400000229ADFF9E710B5034600BF0BB90E2063
:1013500010BD00BF99811AB154885C811088188132
:101360000020F5E770B504460D4600BF0CB90E200D
:1013700070BD00BF00BF0DB90E20F9E700BF00BF70
:10138000686808B90E20F3E700BF00BF286808B9F5
:101390000E20EDE700BF00BF01200A49887041F62A
:1013A0000500088000BF28682060686860604FF60C
:1013B000FF70A0810020208100216181014800F0A0
:1013C00099F8D5E7C42200200146088908B1012018
:1013D00070470020FCE770B505460C4620881128B0
:1013E00006D0362809D12146284601F067FC05E0E1
:1013F0002146284606F0D8F900E000BF00BF70BDC6
:10140000F0B585B006460C4604F10E0701208DF8B4
:1014100000006088ADF802002078002827D1A0885D
:1014200041F60501884222D1A07901281FD100256B
:1014300011E005EBC50104F10E0030F8110042F691
:101440002B21884206D13889ADF804007989ADF89E
:10145000061003E06D1C207AA842EAD800BF07A15D
:10146000032005F0E7FB00208DF8000000BF69466F
:1014700030463268904705B0F0BD0000424C455FF1
:101480004354535F433A494E464F3A43757272652F
:101490006E742054696D65205365727669636520AA
:1014A000646973636F76657265642061742070652A
:1014B00065722E0D0A00000010B50246022000BF22
:1014C0000B784C7843EA042313800446401C0B5DE0
:1014D00093700446401C0B5DD3700446401C0B5DAA
:1014E00013710446401C0B5D53710446401C0B5D98
:1014F000937110BD10B5044600BF0CB90E2010BD8D
:1015000000BF00BF06480078012801D00820F6E798
:1015100000BF04480168204608F088FDEFE700009E
:1015200060220020542200200146002200BF09B999
:101530000E20704700BF0020054B18600120054BAE
:1015400018700020044B1860044801601046F0E752
:101550005C2200206022002058220020542200201B
:1015600070B505460C4600BF05B970BD00BF00BF91
:1015700004B9FAE700BF00BF13480078012800D083
:10158000F3E700BF2088112815D0302804D0322876
:1015900007D0332814D109E0211D284606F09CF914
:1015A0000FE0211D284605F065FE0AE0211D2846B2
:1015B00006F03AF805E0211D284606F031F900E072
:1015C00000BF00BF00BFD0E7602200202DE9F0413E
:1015D00004460D4600BF14B90E20BDE8F08100BFDF
:1015E00000BF20480078012801D00820F5E700BF9F
:1015F0001D48006808B90820EFE794F85B0208B1BD
:101600001120EAE7A4F85E5200201849086084F827
:101610005C0284F85A0284F8590294F85A0200EBEA
:10162000C00101EB001004EB800694F85A02104947
:1016300001EB80000068306032882B460D490320A2
:1016400005F062FB32460121284694DF074600BFC1
:101650000FB13846C1E700BF012084F85B020020CB
:10166000BBE70000602200205C22002058220020FE
:10167000C02A002094C702002DE9FC4105460C4613
:10168000174620880930B84202D90C20BDE8FC81F9
:1016900068466DDF064600BF0EB13046F6E700BF74
:1016A0000820218868542088401C20801B20218825
:1016B00068542088401C208020882844DDF80110D0
:1016C0000160BDF8051081802088801D20809DF874
:1016D0000000400818B900202188685402E0012069
:1016E000218868542088401C20800020CEE700001C
:1016F00010B504462046FFF74DFD204607F01CFEBE
:1017000021460C48FFF72CFF204600F055FA2046F2
:1017100005F0ECFC2046FFF7F9FC21460648FFF7F0
:101720005AFE2146054800F071F82046FFF77EFB7F
:1017300010BD000064230020C4250020D425002013
:10174000F8B505460E4600BF01208DF8020041F6AF
:101750002500ADF8000000BF114A69460120A0DF56
:1017600004460CB12046F8BD0EA1032005F062FA34
:10177000314605F1180000F02BF9294642F62920E0
:1017800000F0F6FE04460FA1032005F053FA0CB159
:101790002046E8E715A1032005F04CFA2046E2E7D1
:1017A000742100204150503A494E464F3A48425425
:1017B00020536572766963652041646465642E0D0B
:1017C0000A0000004150503A494E464F3A484254B0
:1017D0002043686172616374657269737469632020
:1017E00061646465642E0D0A000000004150503AA7
:1017F000494E464F3A48425420696E697420636FDF
:101800006D706C6574652E0D0A00000070B505469C
:101810000C4624B91AA1032005F00CFA70BD2088EB
:1018200035281BD004DC10280CD0112820D110E062
:10183000502802D099281BD115E017A1032005F0EC
:10184000F9F91AE01AA1032005F0F4F9A088E8815B
:1018500013E01EA1032005F0EDF90EE023A1032003
:1018600005F0E8F900BF28A1032005F0E3F904E042
:101870002AA1032005F0DEF900BF00BF00BFCDE7BD
:101880004150503A494E464F3A4E6F206576656E4C
:10189000742E0D0A000000004150503A494E464F48
:1018A0003A4842542057726974650D0A00000000DE
:1018B0004150503A494E464F3A48425420436F6E89
:1018C0006E65637465642E0D0A0000004150503A45
:1018D000494E464F3A48425420446973636F6E6ED6
:1018E00065637465642E0D0A000000004150503A93
:1018F000494E464F3A484254205265616420525343
:10190000502E0D0A000000004150503A494E464FFB
:101910003A4842542052522E0D0A00004150503A8B
:10192000494E464F3A48425420536F6D657468697A
:101930006E6720656C73650D0A00000070B50024A9
:1019400009F04EFE002005F071FA054600BF2E4654
:1019500026B100BF3046FEF7D1FE00BF00BF00F049
:1019600049F8204607F090F8012C03D10BA1032081
:1019700005F060F901F006FA08F014FC02F004F931
:10198000FEF752FD09F022F800F0FEFF0AA1032045
:1019900005F050F9FEF78AFD70BD00004150503A45
:1019A000494E464F3A426F6E6473206572617365AB
:1019B00064210D0A000000004150503A494E464F44
:1019C0003A435453205374617274210D0A0000008D
:1019D00070B504460D462846FDF756FC208065602C
:1019E00070BD70B5044620460AF0EEF9054605F0D4
:1019F000010070BD70B588B027480068079000BF2F
:101A000000235022254907A809F0FEFB054600BF28
:101A10002E4626B100BF3046FEF770FE00BF00BF65
:101A200000BF6A460121002009F0CEFB044600BF3A
:101A3000254625B100BF2846FEF760FE00BF00BF67
:101A40001720ADF81000684609F066FB044600BF99
:101A5000254625B100BF2846FEF750FE00BF00BF57
:101A60000F4809F04DFB044600BF254625B100BFD5
:101A70002846FEF743FE00BF00BF0A4809F018FCE5
:101A8000044600BF254625B100BF2846FEF736FEB6
:101A900000BF00BF08B070BD08C40200B827002016
:101AA000F116020009B3020001460148405C70478C
:101AB00010C4020010B502460949885C00BF4FF00F
:101AC000A0442146D1F80435012484409C43C1F848
:101AD0000845012484401C40C1F80C4500BF10BDDE
:101AE0000CC4020010B504460249085D012104F04F
:101AF000C4FD10BD0CC4020010B504460249085DC7
:101B0000002104F0BAFD10BD0CC4020010B501465E
:101B1000094B585C00BF4FF0A044234600BFD3F8E8
:101B20000445C44004F001040CB1012000E0002091
:101B3000024682F0010010BD0CC402007CB50024F6
:101B40000CE00948055D0020009003460122114683
:101B50000190284604F0FAFC00BF641C042CF0D36A
:101B600000F004F87CBD00000CC4020010B5002495
:101B700003E02046FFF7B6FF641C042CF9D310BD28
:101B800010B5002403E02046FFF7B6FF641C042CC8
:101B9000F9D310BD02464FF0FF30002106E0054B9F
:101BA0005B5C934201D1084602E0491C0429F6D34C
:101BB00000BF704710C4020070B505462888102881
:101BC00002D011282CD115E01748006860B900F048
:101BD00077FF044600BF34B11448006818B12046AE
:101BE00012490968884700BF0F480068401C0E4929
:101BF000086016E00C480068401E0B490860084663
:101C0000006860B9FEF7E6FB044600BF34B1074840
:101C1000006818B1204605490968884700BF00E000
:101C200000BF00BF70BD0000182200201422002059
:101C300010B5002000F0A0FB044600BF1CB1062C2C
:101C400001D0204610BD00BF012000F095FB0446E6
:101C500000BF1CB1062C01D02046F3E700BF0020D6
:101C6000F0E700002DE9F04106460F464FF000086E
:101C700000243046FFF78EFF0446042C41D227B3E0
:101C8000012F02D0022F3BD133E004EB4400234963
:101C900011F8008004EB44000844407868B1204803
:101CA000006800EB800041001E4A1F480068FEF7F4
:101CB00081FE05460DB91B48067004EB4400174928
:101CC00008448078194908551AE017480068FEF75B
:101CD0009BFE1648005D04EB4401104A11448978CC
:101CE000884205D104EB44001146084490F8028074
:101CF00006E004EB44000949084490F8018000BF65
:101D000000BFB8F1000F06D00948006818B140467E
:101D1000074909688847BDE8F08100007029002064
:101D2000002200200C2200201CC402000D220020F2
:101D30000822002070B5084A40F6CD41032000F08B
:101D400031F9044600BF254625B100BF2846FEF7FD
:101D5000D5FC00BF00BF70BD5D1D020070B505461B
:101D60000E2D35D006DC042D0CD0072D1BD00A2DEE
:101D700067D104E00F2D3DD0112D62D143E008F072
:101D80003FFF5FE013213048008876DF0446082CCF
:101D900008D000BF264626B100BF3046FEF7AEFC95
:101DA00000BF00BF4EE0294880894FF6FF7188428E
:101DB0000DD1FFF77BF80446082C08D000BF26465B
:101DC00026B100BF3046FEF799FC00BF00BF39E0E6
:101DD0001FA1032004F02EFF0121192004F030FC84
:101DE00000BF264626B100BF3046FEF787FC00BF85
:101DF00000BF27E01EA1032004F01CFF00211920D2
:101E000004F01EFC1EE022A1032004F013FF0F4883
:101E100080894FF6FF7188420ED025A1032004F07F
:101E200009FF0A48FFF782FA0446052C08D12AA1C7
:101E3000032004F0FFFE03E034A1032004F0FAFEC7
:101E400000E000BF00BF70BD72210020C42500204B
:101E50004150503A494E464F3A707265737365640B
:101E60002074686520627574746F6E20310D0A00ED
:101E70004150503A494E464F3A70726573736564EB
:101E80002074686520627574746F6E20320D0A00CC
:101E90004150503A494E464F3A70726573736564CB
:101EA0002074686520627574746F6E20330D0A00AB
:101EB0004150503A494E464F3A576520617265206D
:101EC000676F696E6720746F207265616420746843
:101ED00065206374730D0A004150503A494E464FD5
:101EE0003A43757272656E742054696D652053654E
:101EF0007276696365206973206E6F7420646973FC
:101F0000636F76657265642E0D0A00004150503A89
:101F1000494E464F3A696E76616C69642070617211
:101F2000616D73200D0A000030B503460020042BBC
:101F300023D2012A07D1012903D103F10E04E4B20F
:101F400000E00024224679B1012902D0022911D1F2
:101F500004E003EB43040A4D2A550DE003EB430470
:101F6000074D2C44627007E003EB4304044D2C44FE
:101F7000A27001E0072000BF00E0072030BD000094
:101F80007029002070B5044600250548007800F04F
:101F9000010018B1204600F05FF80546284670BDE4
:101FA000042200202DE9F04105460E46904600240B
:101FB0001F4806601F4805601F48C0F8008005F0F4
:101FC0000200F8B1002706E0012211463846FFF76B
:101FD000ABFF04467F1C042F01D2002CF4D02CB997
:101FE000720804211548FEF7EDFA044614B9FEF70D
:101FF000D3FA04462CB9124A00211248FEF750FCCD
:10200000044600BF05F0010008B1FFF797FD2CB9A9
:102010000D4A00210D48FEF743FC04462CB90C4A3A
:1020200001210C48FEF73CFC04462046BDE8F08147
:1020300000220020042200200822002020C40200E8
:10204000552402001CC40200254D020014C40200E5
:102050008B05020018C402002DE9F0410446002659
:102060000025C048007820B10020BE490870FFF765
:102070007DFD182C75D2DFE804F00C11123D689537
:10208000BFCDD3F0EEEDECEBEAE9E8E7E6E5E4E31B
:10209000E2E1FFF76BFDB44804705FE100BF002090
:1020A000FFF734FD58B10020FFF71CFD022C02D1D0
:1020B0004FF4E16001E04FF47A60054609E000204A
:1020C000FFF71AFD022C01D1C82001E04FF4C870BF
:1020D0000546A54804706420B5FBF0F0A3490968E3
:1020E00000FB01F700223946A1480068FEF762FCB8
:1020F000064633E10020FFF709FD58B10020FFF745
:10210000F1FC032C02D14FF4487001E04FF47A60E7
:10211000054609E00020FFF7EFFC032C01D1C820A1
:1021200001E04FF4C87005468F4804706420B5FB89
:10213000F0F08E49096800FB01F7002239468C480F
:102140000068FEF737FC064608E10020FFF7DEFCDA
:1021500060B10020FFF7C6FC042C03D14FF47A6075
:1021600002E0FAE04FF47A6005460AE00020FFF74B
:10217000C3FC042C02D14FF4C87001E04FF4C870C6
:102180000546794804706420B5FBF0F0774909688A
:1021900000FB01F70022394675480068FEF70AFC8B
:1021A0000646DBE00020FFF7B1FC50B10020FFF74E
:1021B00099FC052C01D1C82001E04FF47A60054656
:1021C00009E00020FFF798FC052C01D1C82001E0B0
:1021D0004FF4C8700546644804706420B5FBF0F005
:1021E0006249096800FB01F700223946604800682F
:1021F000FEF7E0FB0646B1E00020FFF75BFC5A4823
:1022000004705A480022016859480068FEF7D2FB62
:102210000646A3E00020FFF76FFC534804709DE0E2
:10222000012050490870FFF745FC50480022016822
:102230004F480068FEF7BEFB06468FE088E086E068
:102240007AE071E068E062E03EE03CE03AE038E0ED
:1022500036E030E01FE010E0FFE701204149087060
:10226000FFF728FC4148006800EB8001002240484D
:102270000068FEF79FFB064670E0012039490870B0
:10228000FFF718FC39480022016839480068FEF75A
:1022900091FB064662E0012032490870FFF70AFC14
:1022A0003248006800EB8001002231480068FEF7E8
:1022B00081FB064652E0FFF763FC2B4804704DE0BB
:1022C00000BF00BF00BF00BF2A480068FEF79CFBAC
:1022D0000646C4F11105B5B1AEB9012D0FD9C8201C
:1022E00068436421B0FBF1F02049096800FB01F765
:1022F000002239461F480068FEF75CFB06460220B4
:10230000FFF7FAFB02E00220FFF7ECFB26E0FFF705
:102310002DFC1548047021E0FFF728FC0020FFF792
:10232000EBFB1148047019E0FFF720FC0120FFF7D8
:10233000E3FB0D48047011E0FFF718FC0020FFF7E5
:10234000DBFB0120FFF7D8FB0748047006E000BF65
:10235000FFF716FC0448047000E000BF00BF3046E1
:10236000BDE8F081FD210020FC210020002200209A
:1023700014C4020018C4020070B504462046FFF7DA
:1023800093FB0546032104F01DF9002070BD0246B1
:10239000002901DA002003E013680B4413600120D8
:1023A000704700002DE9FC4704460D46641C0127D8
:1023B000B8460020019001A8FEF73EFB1C480068CB
:1023C00028601B4800681A494968411A1848806803
:1023D000401C461A04EB0709B1451CD9C6B1154883
:1023E0000068009014480068009960F39F210091F4
:1023F0000F48009A00680E490968491C0C4B196087
:1024000019468968084003F10C0141F8202000BFFB
:102410004FF0000804E006480068204404490860C2
:102420009DF80400FEF70EFB4046BDE8FC87000067
:10243000D433002080C502003423002004484068C3
:1024400003490968884201D1012070470020FCE758
:10245000D433002010B5044620780221FFF702FC97
:1024600010BD30B502460B4602210EE08C0042FA48
:1024700004F404F00F00092802DD00F1370401E044
:1024800000F13004C1F101055C550C1EA1F1010100
:10249000ECD130BD01468879012809D1087901289D
:1024A00006D1488842F60212904201D101207047BD
:1024B0000020FCE74FF0FF31054A42F820100828C1
:1024C00004DBFF23A0F10801503253547047000091
:1024D000A03100200146024850F82100704700005A
:1024E000A03100202DE9F04F03460C464FF0FF3994
:1024F0000AB1002000E0082084460AB1082000E06C
:102500000C208046614624E0154850F82100401C0C
:10251000F0B91D460846274616464FFA80FBDFF8FD
:1025200040A00AF1300A0AF805B0DFF834A04AF8F2
:1025300020704EB94FFA85FBA0F1080ADFF820E0C1
:102540000EF1500E0EF80AB000BF4FFA81F902E00A
:10255000491C4145D8D300BF4846BDE8F08F000074
:10256000A03100200146014840567047D03100207C
:1025700030B595B005460C46142233A102A8FCF7ED
:102580005FFE02A96846FFF723FA1C210DA8FCF79D
:1025900070FE9DF8340020F00200801C8DF834009D
:1025A00001980E90BDF80000ADF83C00BDF80000A9
:1025B000ADF83E000020109011901290139000BFD3
:1025C00001208DF85200ADF8505000BF0020079058
:1025D000A07A8DF81C00E07A8DF81D009DF81E0091
:1025E00020F00600801C8DF81E009DF81E0020F0D3
:1025F00008008DF81E009DF81E0020F010008DF8D8
:102600001E009DF81E0020F001008DF81E00142110
:1026100008A8FCF72EFE14A8089007A80990208BA4
:10262000ADF828000020ADF82A00208BADF82C0072
:10263000E0690C9004F1100308AA0DA9074800886E
:10264000A2DF15B030BD000048656172746265613B
:102650007420436865636B696E672E0074210020E7
:10266000F8B504460E4694F85A0200EBC00101EB9F
:10267000001004EB800594F85902B8B194F859227F
:10268000521ED1B294F85A2202EBC20303EB02129B
:1026900004EB820501EBC10305F10A0202EB4300E2
:1026A0000289521C92B2ADF8002002E0E888ADF831
:1026B00000002889ADF802006946304696DFF8BD73
:1026C000014639B10448884204D80448884201D9F7
:1026D000012070470020FCE75423002064230020E1
:1026E00070B505460E46002407E055F8340002F0A8
:1026F0000AFB08B9002070BD641CB442F5D3012068
:10270000F9E700000A49496C81B10949096C084A96
:1027100002EBC1010160114691F84010491C01F023
:10272000070111641146496C491E5164704700004D
:10273000E8320020064902688A4203D00168083165
:102740000160704702493839016000BFF9E70000B5
:10275000203300200178022902D0017803290BD10F
:1027600006490A6C817D1144044A116411464A6C81
:10277000817D511A014A516470470000E8320020FF
:102780002DE9F04104460D464FF6FF76304684426F
:102790000AD14FF48071284606F07AFD0646B6F558
:1027A000807F0FD126460DE0FF2C0BDC214628460A
:1027B00006F05EFD07460FB1204601E04FF6FF70C0
:1027C000064600BF3046BDE8F081000070B5054602
:1027D0000DB9094C01E0084C083409E0204602F02C
:1027E0009AFA064606B904E028467168884700BF91
:1027F000F4E700BF70BD00009431002001200749BC
:10280000086000200649086001208107886000BF39
:10281000034800680028FBD07047000018050040FE
:10282000040100402DE9F04782461F480068002857
:1028300036D01D480068056807F02AFC07461B488B
:1028400004682146384608F06EFDC61C184800781A
:1028500008B907F02FFCAE4201D2284600E030460E
:10286000044424F07F44204607F00CFC07F010FCE1
:1028700080463946404608F056FD00F103093946C6
:10288000204608F050FD814509D907F001FC81463A
:1028900007F0F8FB2F2003F00FF908F09BFE01E092
:1028A00007F026FCBDE8F087F8220020FC2200207B
:1028B0001023002001460888062808DB0888B0F5A8
:1028C000486F06DD08884FF6FF72904201D007205E
:1028D00070474888062808DB4888B0F5486F06DD51
:1028E00048884FF6FF72904201D00720F0E7088831
:1028F0004FF6FF72904208D04888904205D0088871
:102900004A88904201DD0720E2E70020E0E72DE958
:10291000F04106460D46144698462088801D4045E5
:1029200002D90C20BDE8F0813046FFF7C3FF07460F
:1029300000BF0FB13846F5E700BF05202188685475
:102940002088401C20801220218868542088401C48
:10295000208022885119308809F03CFA21880844E7
:10296000208022885119708809F034FA218808449F
:1029700020800020D6E710B5044600BF2046FDF7B2
:10298000BDFE00BF10BD000030B587B01C216846F9
:10299000FCF76FFC002000904FF4203001904FF4C2
:1029A0007020029003208DF80C000020ADF80E007E
:1029B0008DF8100009480590094806906846FEF712
:1029C0006DFB044600BF254625B100BF2846FDF734
:1029D00095FE00BF00BF07B030BD000005740200C7
:1029E0007729020038B51B4802F040F920BB1A488D
:1029F000007848B119484069E8B1002000901748B4
:102A000041696846884716E01548007810B91348B0
:102A1000456801E011488568002229461148006890
:102A2000FDF7C8FF044634B10C48806918B10B4863
:102A300081692046884709E00848406930B1012093
:102A40000090064841696846884700BF0020024957
:102A5000087038BD4822002050220020502A002053
:102A60004422002040C402003EB504462088FEF700
:102A700079FBD0B1208810490978FEF733FC28B9DA
:102A8000208800220D490978FEF73EFC2088ADF829
:102A9000020005208DF800002088FEF76FFB8DF8FE
:102AA0000400684600F0E4FB05E02088012241F2C2
:102AB000060100F007FB3EBDAB220020AA22002049
:102AC00010B5012200210846FFF72EFA044600BF88
:102AD0001CB1072C01D0204610BD00BF07220221E7
:102AE0000120FFF721FA044600BF1CB1072C01D0DA
:102AF0002046F1E700BF042202210020FFF714FA6C
:102B0000044600BF1CB1072C01D02046E4E700BFFB
:102B10000020E1E72DE9F04104460D4617460A2F53
:102B200002D00C20BDE8F081002629462046FEF7A1
:102B3000C3FC06443046761C285C20723046761C66
:102B4000285CA072A85D217B60F300012173A85D61
:102B50004008217B60F341012173A85D8008217B3F
:102B600060F382012173A85DC008217B60F3C3017B
:102B700021730020D6E710B5044600BF2046FDF7BC
:102B8000BDFD00BF10BD00002DE9F04F85B004462B
:102B900018A1032004F04EF8E579A679A78894F8E7
:102BA000088094F8099094F80AA094F80EB01DA13A
:102BB000032004F03FF833462A4625A12A488DE831
:102BC000800FFDF74DF829A1032004F033F8264AC1
:102BD0002DA1032004F05EF82EA1032004F02AF8B2
:102BE00000BF00BF03F036FF0028FBD100BF05B0D7
:102BF000BDE8F08F4150503A494E464F3A637572E6
:102C000072656E742074696D65207072696E7420CF
:102C100066756E6374696F6E2063616C6C65640DBC
:102C20000A0000004150503A494E464F3A646F6ED8
:102C3000652070617273696E6720746865207374B3
:102C400072756374206669656C64730D0A00000018
:102C500025642F25642F25642025643A25643A25B0
:102C6000643A25640D0A0000F42600204150503AD1
:102C7000494E464F3A63757272656E742074696D81
:102C800065206973200000004150503A494E464F7C
:102C90003A2573004150503A494E464F3A646F6EA0
:102CA00065207570646174696E6720637572726502
:102CB0006E742074696D650D0A00000070B586B0F1
:102CC00005460C460026A889A188884201D006B096
:102CD00070BDE088D8B9E28904F1100102A8FFF7BD
:102CE00019FF06461EB104208DF804000BE002A86F
:102CF00000F00FF806461EB104208DF8040002E033
:102D000003208DF8040001A928462A68904700BFD7
:102D1000DDE70146088842F20F72904206DC08881F
:102D200040F22E62904203DA088808B10B20704707
:102D300088780C2801DD0B20F9E7C8781F2801DD11
:102D40000B20F4E70879172801DD0B20EFE748791D
:102D50003B2801DD0B20EAE788793B2801DD0B20C9
:102D6000E5E7087A072801DD0B20E0E70020DEE731
:102D700010B5044621460248FEF742FB10BD000094
:102D8000C425002070B50748FEF7CEFB044600BFFF
:102D9000254625B100BF2846FDF7B0FC00BF00BFA7
:102DA00070BD0000712D020070B506460D460EB1D3
:102DB000012070BD287920B1012809D0022813D143
:102DC0000FE0284606F09EFF0446022028710DE021
:102DD000284600F0CBFC04460A2C01D141F61D54D4
:102DE00004E041F61D5401E00F2400BF00BF20465F
:102DF000DFE72DE9F84F04460F4690464FF0000BF1
:102E000094F85A0200EBC00101EB001004EB8005BE
:102E100094F8590200EBC00105F10A0000EB410AE9
:102E200094F85902401C2979884207D16B46002248
:102E30005146204601F02CFF834627E094F8596262
:102E40001FE02879401EB04202D14FF0000906E091
:102E5000701C00EBC00105F10A0000EB41096B4654
:102E60004A465146204601F013FF10B14FF0010BC6
:102E70000AE0CA4694F85902401C84F85902701CB2
:102E8000C6B22879B042DCDC00BF00BFBBF1000F46
:102E900004D1012038700020BDE8F88F0020387080
:102EA0006946404697DFF7E72DE9F0478146002560
:102EB00032E01C48006800EBC5042178012000FACC
:102EC00001F619480068304020B317480068B04345
:102ED00015490860207802F0A1FF074621780120FB
:102EE0008840124909680840217807FA01F18842B0
:102EF0000FD16078012800D100E00020784080F0F8
:102F00000108606820B108F0FF01207862689047EE
:102F100000BF00BF681CC5B2054800788542C8DB09
:102F2000BDE8F087CC220020DC220020D82200203F
:102F3000D022002070B5044620793D2802D141F20C
:102F40003D0001E04FF488500546208800222946C4
:102F500002F054F870BD00002DE9F04104460D4622
:102F6000164694F85A0200EBC00101EB001004EB86
:102F70008008404607F03AF80746002F48D0254819
:102F80000068062844D22348006800EBC00000EB2C
:102F90004000214901EB800046801E49096801EB91
:102FA000C10101EB41011C4A02EB8101081D6422B1
:102FB0004146FCF745F955B100201649096801EB77
:102FC000C10101EB4101144A02F8210009E002208D
:102FD0001049096801EBC10101EB41010E4A02F8F9
:102FE00021000C48006800EBC00000EB40000A49DB
:102FF00001EB8000876607480068401C05490860AF
:103000000846006805490968884201D105F02AFE92
:10301000BDE8F08158220020D82A00205C22002040
:103020002DE9F0419AB004460D46164694F85A022E
:1030300000EBC00101EB001004EB8008404606F0F5
:10304000D5FF074647B1ADF8026001208DF80000BA
:1030500001956846B84700BF1AB0BDE8F08100008E
:10306000014614480078144A127890421DD0114845
:103070000078401C0F4A107010460078022801D1D9
:10308000002010700D480B4A127850F8220008609A
:103090000B4A086812681044094A1060104600681C
:1030A00020F07F401060012070470020086000BFC2
:1030B000FAE7000008230020092300200023002055
:1030C000FC220020FEB504460D461646094A07CAF2
:1030D0008DE80700ADF80240ADF804508DF80660A9
:1030E0000022054801782046FEF70EF9684600F0F8
:1030F000BFF8FEBDC4C40200AA22002010B50446D9
:10310000A08928DF10BD0278072A34D2DFE802F058
:10311000330407102029300000220A702CE001221D
:103120000A7003898B818388CB81C2688A6023E01F
:1031300002220A7003898B818388CB81C2688A60EE
:10314000027C062A01D1012300E000230B7413E066
:1031500003220A70C3888B810389CB81C2688A608D
:103160000AE004220A70C3888B810023CB8103E02C
:1031700005220A7000E000BF00BF704770B5054629
:10318000002409E0064850F8240020B1044850F813
:10319000241028468847641C082CF3D370BD000017
:1031A000503200203EB505460C46DCB1112C19D03A
:1031B0000020009001900290ADF8025001940D2C77
:1031C00003D10B208DF8000008E0862C03D10A20E3
:1031D0008DF8000002E009208DF80000684600F03C
:1031E00057F800BF3EBD000070B50546002405E05D
:1031F000044850F8241028468847641C002CF7D057
:1032000070BD00006422002070B50546002405E072
:10321000044850F8241028468847641C002CF7D036
:1032200070BD00007022002070B50546002405E046
:10323000044850F8241028468847641C022CF7D311
:1032400070BD00005CC4020070B50546002405E0B6
:10325000054850F8241028468847641C0348007825
:103260008442F5DB70BD000040310020A622002022
:1032700070B50546002405E0044850F8241028469F
:103280008847641C022CF7D370BD00008CC4020078
:1032900070B50546002405E0044850F8241028467F
:1032A0008847641C002CF7D070BD0000D0C4020019
:1032B000F0B5034600241FE0124E306806689E42B7
:1032C00003D90668F61A06601AE006689B1B0668B2
:1032D0003444002606600B4E35680A4FC6693E60CE
:1032E000C66846B10E1926F07F464660C6688660FD
:1032F0001668C661156000BF024800680028DBD16F
:1033000000BFF0BDF82200201FB50446606808B970
:10331000012000E000200390207806287BD2DFE81F
:1033200000F0820304304F7B00BFA08900F03DFA1B
:1033300018B9E08906F0F7FD10B3A08900F030FA63
:10334000ADF80200E08906F0EBFD8DF8040020786E
:10335000012807D1606808B9002000E003208DF83B
:10336000000006E0606808B9012000E004208DF844
:10337000000060680390A0680290684605F0AAF813
:1033800052E0A08900F011FA18B9E08906F0CBFDEF
:10339000A8B1A08900F004FAADF80200E08906F0B7
:1033A000BFFD8DF80400606808B9022000E0052028
:1033B0008DF80000A0680290684605F08BF833E0B5
:1033C000A08900F0F2F928B3E08918BBA08900F0C9
:1033D000E7F9ADF80200E08906F0A2FD8DF80400DF
:1033E000FF208DF80400606838B906208DF80000D1
:1033F000BDF8020005F086FA02E007208DF8000013
:1034000000200E4908700E49087005F0C5F968469D
:1034100005F060F808E006E008208DF80000684636
:1034200005F058F800E000BF00BF0448007820B164
:1034300000200249087005F0AFF91FBD812200206D
:103440008222002010B588B00446022000F0D4F992
:1034500010B9022008B010BD4FF6FF70844201D1B0
:103460000420F7E705208DF8040001208DF80800FE
:10347000ADF80A400022114601A804F03DFB18B146
:1034800006F094FB0020E5E70820E3E700B587B0ED
:10349000022000F0B1F910B9022007B000BD0620EB
:1034A0008DF8000000221146684604F025FB48B163
:1034B0000548007810B101200349087306F076FB37
:1034C0000020EAE70820E8E75033002010B58CB070
:1034D000142107A8FBF7CDFE022000F08DF928B1DA
:1034E00007A8FFF74BFE00200CB010BD012000F034
:1034F00083F908B10020F7E7012000F089F900F016
:1035000057FA01208DF8000004F002FC04460C2C50
:1035100028D2DFE804F0061407152722092327190B
:103520001E1A00BF0B20DFE7022000F071F9012016
:1035300000F048F907A8FFF721FE0020D4E700BFFC
:1035400000208DF804000EE000BF03208DF8040079
:1035500009E002208DF8040005E000BF01208DF88D
:10356000040000E000BF00BF00221146684604F0DE
:10357000C3FA06F01BFB0020B6E7000038B504468E
:103580000CB9052038BD6946204606F0D9FBE0B1EC
:103590000F48BDF8001000EB01108089002812DDF3
:1035A000A07A80B10A48BDF8001000EB01108089B4
:1035B000401E0749BDF8002001EB02118881002060
:1035C000A072002502E0062500E00A252846D9E77A
:1035D000303300207FB514461D462B46224601A9F4
:1035E000684606F04BFB04B070BD37B50C46154677
:1035F0002B4622466946002006F040FB3EBD37B50B
:103600000C4615462B4622460021684606F036FB3E
:103610003EBD024602B109B9052070471068086036
:103620000020FAE738B504460D4604B10DB905206F
:1036300038BD6946204606F083FBA8B161680B4897
:10364000BDF8002000EB02108089401C074ABDF83D
:10365000003002EB03129081296060680C306860D2
:103660000120A0720020E3E70A20E1E730330020C8
:1036700070B504460D460CB9052070BD0323002229
:103680002946204608F08AFDF7E770B504460D4646
:10369000022300222946204608F080FD70BD70B547
:1036A00005460E4614460CB9052070BD022322467D
:1036B0003146284608F072FDF7E700000146094A46
:1036C0001278082A01D10C200AE0074A054B1B7822
:1036D00042F82310034A1278521C024B1A70002041
:1036E000704700001523002050320020F8B5044632
:1036F0000D46022000F080F808B90220F8BD0CB990
:103700000520FBE76946284608F038FE06461EB944
:10371000BDF80000208065803046EFE770B50446B4
:10372000022000F069F808B9022070BD0CB905202C
:10373000FBE72088022801DD0420F6E720880A49FB
:1037400001EB001671896088C01C081A08D4218812
:10375000608808F005FE002020806080002500E0E1
:1037600004252846E1E70000303300203EB504463A
:103770000A4B6A460021A01D06F080FA054635B9BD
:10378000064A9188019806F049FB054603E0034884
:1037900000210160416028463EBD00002423002036
:1037A0000146A1F5404080B270470146B1F5404F57
:1037B00005DB4FF6FE70814201DC012070470020DE
:1037C000FCE70000024909788143014A1170704703
:1037D0001423002010B504462078182802D1FDF7E4
:1037E00061FD207010BD10B504462078182802D164
:1037F000FDF758FD207010BD0146044800780840D0
:1038000008B1012070470020FCE7000014230020CD
:10381000024909780143014A1170704714230020BE
:1038200030B504461088C01C984201D90C2030BD28
:103830000220158848551088401C108001201588EA
:1038400048551088401C108015884C551088401C25
:1038500010800020EBE700002DE9F04106460C4601
:1038600015460027B846862C03D0112C01D0002C19
:1038700035D1862C03D14FF00008012709E0112C27
:1038800003D14FF00108002703E014B94FF00008FE
:103890000027C5B13A46134801783046FDF734FD9C
:1038A0004246114801783046FDF72EFD00220F48B0
:1038B00001783046FDF728FD00220D48017830469A
:1038C000FDF722FD0BE03A46084801783046FDF747
:1038D0001BFD4246064801783046FDF715FDBDE860
:1038E000F0810000C1220020C0220020BD22002063
:1038F000BC22002008B5684600F0BAF8009808B16C
:10390000012008BD0020FCE7F8B505460C46164628
:103910001F461C48007800F0010008B90120F8BDDE
:103920002846FEF7CDFE08B90220F8E70CB90320BF
:10393000F5E7C4F30B0008B10620F0E72868A042C1
:1039400004D804EB06306968884201D90520E6E70F
:103950000EB90420E3E7684606F06CF808B90720C2
:10396000DDE7009847600098056002200099087222
:10397000C4F30F30009988810098068206F022F97E
:103980000020CCE72E23002070B505460C462046CB
:1039900006F084F870BD4FF010204169481C08B152
:1039A000084670474FF0805040690003F9E7000077
:1039B0002DE9F0412B482C49401A04092948401AA6
:1039C0000509FFF7E8FF06462848007800F00100E7
:1039D00010B10020BDE8F081002008E0224A02EB8F
:1039E00000110A6812B14A6802B16D1E401CA04263
:1039F000F4D300202BE01C4901EB00124FF0000C27
:103A0000C7B2002117E0DFF8608008EB0113D3F89C
:103A10000080B8F1000F05D0D3F80480B8F1000F92
:103A200000D007E093F80D80E04502DD93F80DC06B
:103A3000CFB200BF491CA142E5D30B4901EB0712ED
:103A40005660117BA6EB013111601668401CA8423C
:103A5000D1D30648007840F00100044908700020E6
:103A6000B8E7000064230020542300202E23002008
:103A7000014609B9032070470248406E08600020E3
:103A8000F9E700006C3300202DE9F84305460C46A9
:103A900016461F46DDF820801F48007800F0010020
:103AA00010B90120BDE8F8832846FEF709FE08B9E1
:103AB0000220F7E706B10CB90320F3E706F0030094
:103AC00010B904F0030008B10620EBE72868A04213
:103AD00004D804EB87016868884201D20520E1E739
:103AE0000FB90420DEE7684605F0A4FF08B90720F7
:103AF000D8E70098C0F8048000980560012000997C
:103B000008720098C660009804610098878206F0E9
:103B100059F80020C6E700002E23002070B50446A7
:103B20001748006E00EB4000154901EBC005154831
:103B3000007800F0020068B1022C02D0032C08D1FA
:103B400003E0284603F08CFE03E0284603F072FEF3
:103B500000BF12E00B48007800F0040068B109488B
:103B6000007820F00400074908700548406E20B135
:103B70000846007840F00200087005F0E1FF70BDD3
:103B80006C3300202E2300203EB500BF9DF80000BE
:103B900020F00F00401C00909DF8000020F0F00085
:103BA0001030009000BF0A2215A168467CDF044651
:103BB00000BF254625B100BF2846FCF79FFD00BF8A
:103BC00000BF0020019002904FF4C870ADF80400CF
:103BD0004000ADF806000020ADF808004FF4C870B2
:103BE000ADF80A0001A87ADF044600BF254625B1DA
:103BF00000BF2846FCF782FD00BF00BF3EBD0000AD
:103C00004E6F726469635F435453000070B505469C
:103C10000DB1012070BD1848007B18B10020164975
:103C2000087301E000F0D4F81348007808281DD28A
:103C3000DFE800F01C04080C101C141800F03CF81D
:103C4000044615E000F0B2F8044611E000F08EF8EA
:103C500004460DE000F044F8044609E000F01CF9C9
:103C6000044605E000F028F9044601E00F2400BFF7
:103C700000BF2046CEE70000503300200C480089EA
:103C8000401C0B49088100204880087300BF0CE0ED
:103C9000084901EB0011097809B9012200E000226E
:103CA00003490A310A54411C88B20228F0DB7047EC
:103CB000503300203033002010B5084800F032F8AF
:103CC00040B900200549891E08704880486041F6C7
:103CD0001D5010BD00F06AF8FBE7000052330020D1
:103CE00070B50D4845880D4800EB0510808968B90E
:103CF0000A4800EB05100023012241680848FFF73D
:103D000003FE044604200449087002E000F08CF829
:103D10000446204670BD00005033002030330020A0
:103D20005423002010B501460022002015E00D4B61
:103D30001B5C83B100240B4B1C540B4B03EB001397
:103D40009B8943B9084B03EB00139B7B012B02D1EA
:103D50000880012203E0431C98B20228E7DB00BF81
:103D6000104610BD5A33002030330020F8B50C48FF
:103D700044680C4800680B49898800EB810560881D
:103D8000C01C86B203200649087000200090084637
:103D90003346294642680448FFF776FEF8BD000026
:103DA000503300201C2300205423002010B5074965
:103DB0004888091D06F002F818B1FFF7D7FF04463E
:103DC00002E0FFF78DFF0446204610BD503300206F
:103DD00010B514480078082820D2DFE800F0041F4E
:103DE0001F0A1016171BFFF749FF01200D49087025
:103DF00015E000F06DF802200A4908700FE000F0AD
:103E000029F806200749087009E000BF0720054986
:103E1000087004E001200349087000E000BF00BF03
:103E200010BD00005033002010B505200649087071
:103E300002200649888008460023012201680448C0
:103E4000FFF762FD10BD0000503300201C2300204E
:103E5000542300200D4908680D4949880D4A02EB9A
:103E600001114968094A116009494988094A02EB68
:103E70000111486005498988054A5288054B03EBC2
:103E8000021211810221014A918070471C230020F7
:103E9000503300203033002010B50620044908704C
:103EA0004988044A02EB0111486803F00FFF10BD76
:103EB000503300203033002010B50720034908702C
:103EC0000020486003F012FF10BD000050330020B6
:103ED000054A50684288D21C91B2044A92880A442A
:103EE000024B9A8070470000503300201C230020B2
:103EF0003EB504462088502821D0522802D05428AC
:103F000025D103E0A08801F0A9F920E006208DF872
:103F10000000A08800F0A2FCADF80200A088ADF877
:103F20000400BDF8020000F04FF9A08800220C49FF
:103F30000978FDF7E9F96846FFF756F907E0A01D93
:103F4000FEF7A8FA10B1A08801F0D8F900BF00BFB1
:103F5000FCF7C6FD07F044FF06F032FC3EBD000052
:103F60006B2200203EB504466088ADF80200207840
:103F700020B101280FD002282BD116E000208DF8A7
:103F800000006846FFF730F9608800F039FB05460D
:103F900001F064F91DE001208DF80000A088ADF863
:103FA00004006846FFF720F913E0207980B16088AB
:103FB00000F026FB05464FF6FF70854207D0012230
:103FC000054801782846FDF79FF906F0F9FB00BF88
:103FD00000BF00BF3EBD00006B22002010B50446AC
:103FE000207801280DD1608801F038F9608800F050
:103FF000CDF928B16088012203490978FDF784F9D9
:1040000000E000BF00BF10BD6B22002010B500F023
:10401000C5FDFDF747F912490870FDF743F911494D
:104020000870FDF73FF910490870FDF73BF90F499B
:1040300008700B48007818280BD00A480078182818
:1040400007D009480078182803D0084600781828B7
:1040500001D1032010BD0120054908700020F9E7B7
:10406000692200206A2200206B2200206C2200209E
:104070006822002010B586B000F0BEF801A8FDF758
:1040800065F8002412E002A931F8140000F0E6FB04
:104090004FF6FF71884207D102A931F814000122BE
:1040A00006490978FDF730F9601C84B20198A042F6
:1040B000E9D806F085FB06B010BD00006B22002099
:1040C00010B504462078072803D1608801F016F95E
:1040D00000E000BF00BF10BD10B504460B480178DA
:1040E0002046FDF7FFF870B100210AE001EB410026
:1040F000074A02EB80004088A04201D1C8B210BD3F
:10410000491C0829F2D3FF20F9E700007B22002098
:10411000602D002010B500240DE004EB4401084A96
:1041200002EB8101488807490978FDF7DBF808B9F7
:10413000E0B210BD641C082CEFD3FF20F9E70000AB
:10414000602D00207B2200202DE9F04105460F461E
:10415000012000FA05F418480068FCF755FC0646F3
:104160000EB1BDE8F081154800682040E0B928464E
:1041700001F054FE28B1124800682043104908603D
:1041800004E00F480068A0430D4908600B48006830
:1041900020430A49086000220A480168064800686E
:1041A000FCF708FC064604E004480068A043034905
:1041B000086000BFD5E7000064C50200DC220020D3
:1041C000D8220020D42200201CB50446044903C98B
:1041D000CDE9000100226946204603F0FCFF1CBD2A
:1041E00054C4020010B500F0DFFC01200149087042
:1041F000002010BD7422002010B54FF6FF7003F0B0
:10420000BDFE0249088006F011FB10BD7622002099
:104210002DE9FC478146484600F020FB0546002674
:1042200000274FF003084FF0010A4FF6FF70854258
:104230000CD06A460821284603F096FF04462CB9A4
:104240000198861D8788D0F8008000BF00BF4346D4
:104250003A4631464846A9DF0446042C01D11124D0
:1042600015E0082C01D1002411E00B2C0FD14FF0E8
:10427000000A08F0020010B14FF0010807E006B98B
:1042800027B1002600274FF0030800E003240B2C81
:10429000DDD0BAF1000F00D10B242046BDE8FC8729
:1042A0002DE9FC478046404600F0D8FA07464FF615
:1042B000FF70874203D143F20200BDE8FC874FF054
:1042C00001094FF0000A00BF4FF0000A4A46511C96
:1042D0001FFA81F96B460821384603F087FF044630
:1042E00004BB019D032028602A1DA91D40462B68A0
:1042F000AADF04462CB90821384604F02DF80446FC
:104300000FE00C2C02D14FF0010A02E0052C00D185
:1043100000240821384604F003F8064606B10324B9
:1043200000BF02E0072C00D10C24BAF1000FCBD162
:1043300000BF2046C1E700007FB504462078012871
:1043400018D12079012815D1608802AA012103F033
:104350000BFF05466DB902208DF800006088ADF8AE
:104360000200039800788DF804006846FEF74CFFC1
:1043700000BF00BF044800884FF6FF71884201D09B
:1043800006F054FA7FBD0000762200207CB504467A
:10439000204600F063FA06466A460121304603F0E3
:1043A000E3FE05460DB100207CBD01980078FBE7D7
:1043B00070B505464FF6FF7600BF4FF6FF720A480C
:1043C00001882846A7DF044643F20300844204D153
:1043D00005480088401C0449088043F203008442D9
:1043E000EBD0204670BD000078220020014688886E
:1043F0004FF6FF72904203D0088808B10120704741
:104400000020FCE77CB504460D46294604F118005F
:10441000FDF7DEFA002000900190208BADF800003F
:104420000020ADF80200E069019005A10320019A87
:1044300002F030FC218A6A464FF6FF70A4DF7CBD93
:104440004150503A494E464F3A74686973206D6541
:1044500073736167652069732025730070B5FEF77B
:10446000CDF900BF0023114A05211846FCF75CFA7C
:10447000044600BF254625B100BF2846FCF73EF99B
:1044800000BF00BF00BF00BF002002F0CFFC044609
:1044900024B100BF2046FCF731F900BF00BFFDF793
:1044A00049FC00F0FFFA07F0BDFA70BDB828002003
:1044B0003EB504460D4620780221B1EB500F01D0E5
:1044C00000203EBDB4F80100ADF80800E0788DF89A
:1044D0000A00A188ADF80010A0798DF8020001AAA9
:1044E00069462846FCF726F8032201A902A8FAF734
:1044F000D2FE08B90120E4E70020E2E770B50646E5
:104500000C463046FFF7E8FD0546FF2D0CD005EBC5
:104510004500064901EB8000416821600189A180C6
:10452000807AA071002070BD0520FCE7602D00207E
:1045300070B590B004462088102801D010B070BD2E
:104540003422211D03A8FAF77BFE4FF6FF759DF874
:1045500010000321B1EB500F35D004F021F89DF885
:104560001000400820B1012803D0022828D114E00F
:1045700000BF09E0019800F1110104A8FBF7F7FD65
:1045800010B1BDF8085006E06A4602A9072003F002
:10459000D9FF0028EED100BF13E008E00198411CCC
:1045A00004A8FFF785FF10B1BDF8085006E06A4681
:1045B00002A9072003F0C6FF0028EFD100BF00E0EA
:1045C00000BF00BF00BFBDF80C0004A901F054F803
:1045D00006464FF6FF7085420FD0BDF80C00294605
:1045E00000F0E0F8BDF80C00ADF8060001208DF8F1
:1045F000040001A8FEF718FE00BF00BF9EE7000000
:10460000024600210DE001EB4100084B33F8200089
:10461000904205D101EB410003EB800040887047D8
:10462000491C0829EFD34FF6FF70F8E7602D0020F2
:104630002DE9F041CEB007460C4607B134B900224F
:10464000114610466FDF4EB0BDE8F08138A84D909E
:1046500050200190B8210AA8FAF70BFE002009E0CB
:10466000C0EBC00101EB00110AAA114402AA42F8F2
:104670002010401C0828F3D300262AE0502138A837
:10468000FAF7F7FD37F8160001AB4CAA072103F043
:104690008FFF0546052D01D0072D01D10520D2E75A
:1046A00038A8407C4FEA5008B8F1000F05D0B8F1A7
:1046B000010F02D043F20220C5E7C6EBC60101EBB1
:1046C00006110AAA881817220DF1E101FAF7B8FDC0
:1046D000761CA642D2D3E2B2002102A86FDFB2E775
:1046E00010B500F06DFAFCF7DDFD064908700846CC
:1046F0000078182801D1032010BD0120024908705C
:104700000020F9E77B2200207A2200202DE9F041E9
:1047100004460D46601C00F0EAFA10B90020BDE81E
:10472000F0811022691C601CFAF7B5FD08B9012060
:1047300000E00020074605F1110104F11100FBF72C
:1047400016FD064607B90EB10120E8E70020E6E7AE
:104750000246108808B101207047002105E0901C36
:10476000405C08B10120F7E7491C0829F7D3002075
:10477000F2E770B505460C462846FFF7E9FF08B991
:10478000002070BD28882188884201D00020F8E7E9
:104790000822A11CA81CFAF77EFD08B90120F0E749
:1047A0000020EEE770B504460D462946204604F089
:1047B0000BF970BD30B587B00446207810B9207968
:1047C000072801D007B030BD608804AA072103F094
:1047D000CBFC054605B1F5E703F0E2FE1EE060887C
:1047E000BDF81810884200D118E003990598FFF72A
:1047F0008DFF90B16088FFF703FFADF80200002045
:104800008DF800006088ADF80400BDF81810ADF810
:1048100006106846FEF708FD07E000BF02AA06A9D9
:10482000072003F08FFE0028D9D100BF00BFC9E7E1
:1048300070B506463046FFF7E3FE0446304603F007
:104840009EFC05464FF6FF70844204D01DB9014618
:10485000204604F0B9F8284670BD000070B5054642
:104860002846FFF739FC0446FF2C05D004EB440032
:10487000034931F8200070BD4FF6FF70FBE70000E0
:10488000602D00203EB5044603F08AFE10E001983A
:1048900000F146012046FFF76CFF30B9019800F1A6
:1048A0002A012046FFF765FF10B1BDF808003EBDA4
:1048B0006A4602A9072003F045FE0028E7D14FF61B
:1048C000FF70F4E72DE9FC4106460C4617461D46ED
:1048D00024B10C4909782068884205D33DB10949C3
:1048E00009782868884202D20420BDE8FC8123466A
:1048F00032460448CDE900750178034804F048F9D0
:10490000F3E700007C220020C02D002070B59AB093
:1049100005460C4610211B48FAF7ABFC05B13CB923
:10492000002019490870002108466EDF1AB070BDDA
:1049300015490C70620029461248FAF781FC0020E4
:104940001990382103A8FAF794FC0020009019ABC5
:1049500003AA21460190284604F01AF906460EB132
:104960003046E3E7002007E0C0EBC00103AA114492
:1049700011AA42F82010401C0828F5D3E1B211A872
:104980006EDFD3E7C02D00207C2200202DE9F0410E
:1049900006460C460F272EB10120FEF713FF01201B
:1049A000BDE8F081207930B101280AD0022833D047
:1049B000032864D13EE003F099F9074601202071F5
:1049C0005EE04FF00008002516E0324800EB0510CD
:1049D000007802280ED12F4901EB0511486803F039
:1049E00075F9074600202B4901EB051108704FF0BF
:1049F000010803E0681C85B2022DE6DB00BFB8F1B8
:104A0000000F08D10220FEF703FF0120FEF7DAFEB7
:104A100041F61D50C4E733E01F480023012201681E
:104A20001E48FEF771FF074602201B4988800020C0
:104A3000207125E01849086803F048F9074618482E
:104A400045881548D0F80080124800EB05104068F2
:104A5000114908600F4800EB0510C0F804800846B3
:104A600080880C4901EB0511088102200A498880E1
:104A70000020084901EB05110870207100E000BF1B
:104A800000BF27B10120FEF79DFE0E2088E7002021
:104A900086E70000303300201C2300205423002030
:104AA000503300202DE9F041192001210A4600244D
:104AB0002346254600BF4FF0A0473E4641EA420745
:104AC00047EA840747EA032747EA054C06F5E0670B
